{
  "contractName": "Journal",
  "abi": [
    {
      "anonymous": false,
      "inputs": [
        {
          "indexed": false,
          "internalType": "string",
          "name": "title",
          "type": "string"
        },
        {
          "indexed": false,
          "internalType": "string",
          "name": "note",
          "type": "string"
        },
        {
          "indexed": false,
          "internalType": "address",
          "name": "owner",
          "type": "address"
        },
        {
          "indexed": false,
          "internalType": "enum Journal.Mood",
          "name": "mood",
          "type": "uint8"
        }
      ],
      "name": "Submitted",
      "type": "event"
    },
    {
      "inputs": [
        {
          "internalType": "uint256",
          "name": "",
          "type": "uint256"
        }
      ],
      "name": "entries",
      "outputs": [
        {
          "internalType": "string",
          "name": "title",
          "type": "string"
        },
        {
          "internalType": "string",
          "name": "note",
          "type": "string"
        },
        {
          "internalType": "address",
          "name": "owner",
          "type": "address"
        },
        {
          "internalType": "enum Journal.Mood",
          "name": "mood",
          "type": "uint8"
        }
      ],
      "stateMutability": "view",
      "type": "function",
      "constant": true
    },
    {
      "inputs": [],
      "name": "entryCount",
      "outputs": [
        {
          "internalType": "uint256",
          "name": "",
          "type": "uint256"
        }
      ],
      "stateMutability": "view",
      "type": "function",
      "constant": true
    },
    {
      "inputs": [],
      "name": "owner",
      "outputs": [
        {
          "internalType": "address",
          "name": "",
          "type": "address"
        }
      ],
      "stateMutability": "view",
      "type": "function",
      "constant": true
    },
    {
      "inputs": [],
      "name": "title",
      "outputs": [
        {
          "internalType": "string",
          "name": "",
          "type": "string"
        }
      ],
      "stateMutability": "view",
      "type": "function",
      "constant": true
    },
    {
      "inputs": [
        {
          "internalType": "string",
          "name": "_note",
          "type": "string"
        },
        {
          "internalType": "string",
          "name": "_title",
          "type": "string"
        },
        {
          "internalType": "enum Journal.Mood",
          "name": "_mood",
          "type": "uint8"
        }
      ],
      "name": "createJournalEntry",
      "outputs": [],
      "stateMutability": "nonpayable",
      "type": "function"
    }
  ],
  "bytecode": "0x6080604052600060025534801561001557600080fd5b50610aca806100256000396000f3fe608060405234801561001057600080fd5b50600436106100575760003560e01c80630cbb0f831461005c5780633622b86e1461007a5780634a79d50c146100965780638da5cb5b146100b4578063b30906d4146100d2575b600080fd5b610064610105565b604051610071919061056d565b60405180910390f35b610094600480360381019061008f9190610707565b61010b565b005b61009e610292565b6040516100ab919061081a565b60405180910390f35b6100bc610320565b6040516100c9919061087d565b60405180910390f35b6100ec60048036038101906100e791906108c4565b610344565b6040516100fc9493929190610968565b60405180910390f35b60025481565b6000835111801561011d575060008251115b61012657600080fd5b60026000815480929190610139906109ea565b919050555060405180608001604052808381526020018481526020013373ffffffffffffffffffffffffffffffffffffffff168152602001826003811115610184576101836108f1565b5b81525060036000600254815260200190815260200160002060008201518160000190805190602001906101b89291906104b1565b5060208201518160010190805190602001906101d59291906104b1565b5060408201518160020160006101000a81548173ffffffffffffffffffffffffffffffffffffffff021916908373ffffffffffffffffffffffffffffffffffffffff16021790555060608201518160020160146101000a81548160ff02191690836003811115610248576102476108f1565b5b02179055509050507f182cca23e8873b2f97b6328fe6a96c2f6f4a15bba3bafa24987668481c34e24d828433846040516102859493929190610968565b60405180910390a1505050565b6001805461029f90610a62565b80601f01602080910402602001604051908101604052809291908181526020018280546102cb90610a62565b80156103185780601f106102ed57610100808354040283529160200191610318565b820191906000526020600020905b8154815290600101906020018083116102fb57829003601f168201915b505050505081565b60008054906101000a900473ffffffffffffffffffffffffffffffffffffffff1681565b600360205280600052604060002060009150905080600001805461036790610a62565b80601f016020809104026020016040519081016040528092919081815260200182805461039390610a62565b80156103e05780601f106103b5576101008083540402835291602001916103e0565b820191906000526020600020905b8154815290600101906020018083116103c357829003601f168201915b5050505050908060010180546103f590610a62565b80601f016020809104026020016040519081016040528092919081815260200182805461042190610a62565b801561046e5780601f106104435761010080835404028352916020019161046e565b820191906000526020600020905b81548152906001019060200180831161045157829003601f168201915b5050505050908060020160009054906101000a900473ffffffffffffffffffffffffffffffffffffffff16908060020160149054906101000a900460ff16905084565b8280546104bd90610a62565b90600052602060002090601f0160209004810192826104df5760008555610526565b82601f106104f857805160ff1916838001178555610526565b82800160010185558215610526579182015b8281111561052557825182559160200191906001019061050a565b5b5090506105339190610537565b5090565b5b80821115610550576000816000905550600101610538565b5090565b6000819050919050565b61056781610554565b82525050565b6000602082019050610582600083018461055e565b92915050565b6000604051905090565b600080fd5b600080fd5b600080fd5b600080fd5b6000601f19601f8301169050919050565b7f4e487b7100000000000000000000000000000000000000000000000000000000600052604160045260246000fd5b6105ef826105a6565b810181811067ffffffffffffffff8211171561060e5761060d6105b7565b5b80604052505050565b6000610621610588565b905061062d82826105e6565b919050565b600067ffffffffffffffff82111561064d5761064c6105b7565b5b610656826105a6565b9050602081019050919050565b82818337600083830152505050565b600061068561068084610632565b610617565b9050828152602081018484840111156106a1576106a06105a1565b5b6106ac848285610663565b509392505050565b600082601f8301126106c9576106c861059c565b5b81356106d9848260208601610672565b91505092915050565b600481106106ef57600080fd5b50565b600081359050610701816106e2565b92915050565b6000806000606084860312156107205761071f610592565b5b600084013567ffffffffffffffff81111561073e5761073d610597565b5b61074a868287016106b4565b935050602084013567ffffffffffffffff81111561076b5761076a610597565b5b610777868287016106b4565b9250506040610788868287016106f2565b9150509250925092565b600081519050919050565b600082825260208201905092915050565b60005b838110156107cc5780820151818401526020810190506107b1565b838111156107db576000848401525b50505050565b60006107ec82610792565b6107f6818561079d565b93506108068185602086016107ae565b61080f816105a6565b840191505092915050565b6000602082019050818103600083015261083481846107e1565b905092915050565b600073ffffffffffffffffffffffffffffffffffffffff82169050919050565b60006108678261083c565b9050919050565b6108778161085c565b82525050565b6000602082019050610892600083018461086e565b92915050565b6108a181610554565b81146108ac57600080fd5b50565b6000813590506108be81610898565b92915050565b6000602082840312156108da576108d9610592565b5b60006108e8848285016108af565b91505092915050565b7f4e487b7100000000000000000000000000000000000000000000000000000000600052602160045260246000fd5b60048110610931576109306108f1565b5b50565b600081905061094282610920565b919050565b600061095282610934565b9050919050565b61096281610947565b82525050565b6000608082019050818103600083015261098281876107e1565b9050818103602083015261099681866107e1565b90506109a5604083018561086e565b6109b26060830184610959565b95945050505050565b7f4e487b7100000000000000000000000000000000000000000000000000000000600052601160045260246000fd5b60006109f582610554565b91507fffffffffffffffffffffffffffffffffffffffffffffffffffffffffffffffff821415610a2857610a276109bb565b5b600182019050919050565b7f4e487b7100000000000000000000000000000000000000000000000000000000600052602260045260246000fd5b60006002820490506001821680610a7a57607f821691505b60208210811415610a8e57610a8d610a33565b5b5091905056fea26469706673582212207d401bf6fde409783a65bc768f117b5b3d61d94b8f7f0a694026175d24dd691264736f6c634300080b0033",
  "immutableReferences": {},
  "source": "// SPDX-License-Identifier: MIT\npragma solidity 0.8.11;\n\n\ncontract Journal {\n\n    address public owner;\n    string public title;\n\n    enum Mood { Anxious, Happy, Sad, Melancholy}\n\n    struct Entry {\n        string title;\n        string note; // write how you are feeling, etc.\n        address owner;\n        Mood mood;\n    }\n\n    uint public entryCount = 0;\n    mapping(uint => Entry) public entries;\n\n    event Submitted(string title, string note, address owner, Mood mood);\n\n    function createJournalEntry(string memory _note, string memory _title, Mood _mood) public {\n        // Require valid entry items\n        require(bytes(_note).length > 0 && bytes(_title).length > 0);\n        // Increase entry count\n        entryCount++;\n        // Create a journal entry\n        entries[entryCount] = Entry(_title, _note, msg.sender, _mood);\n        // Trigger event\n        emit Submitted(_title, _note, msg.sender, _mood);\n    }\n\n}",
  "sourcePath": "/Users/axeliota/Development/journal-dapp/contracts/Journal.sol",
  "compiler": {
    "name": "solc",
    "version": "0.8.11+commit.d7f03943.Emscripten.clang"
  },
  "schemaVersion": "3.4.4",
  "updatedAt": "2022-02-10T03:16:06.389Z",
  "networkType": "ethereum",
  "devdoc": {
    "kind": "dev",
    "methods": {},
    "version": 1
  },
  "userdoc": {
    "kind": "user",
    "methods": {},
    "version": 1
  }
}