{
  "contractName": "Journal",
  "abi": [
    {
      "anonymous": false,
      "inputs": [
        {
          "components": [
            {
              "internalType": "string",
              "name": "title",
              "type": "string"
            },
            {
              "internalType": "string",
              "name": "note",
              "type": "string"
            },
            {
              "internalType": "address",
              "name": "owner",
              "type": "address"
            },
            {
              "internalType": "enum Journal.Mood",
              "name": "mood",
              "type": "uint8"
            },
            {
              "internalType": "uint256",
              "name": "entry_id",
              "type": "uint256"
            }
          ],
          "indexed": false,
          "internalType": "struct Journal.Entry",
          "name": "",
          "type": "tuple"
        }
      ],
      "name": "Submitted",
      "type": "event"
    },
    {
      "inputs": [
        {
          "internalType": "uint256",
          "name": "",
          "type": "uint256"
        }
      ],
      "name": "entries",
      "outputs": [
        {
          "internalType": "string",
          "name": "title",
          "type": "string"
        },
        {
          "internalType": "string",
          "name": "note",
          "type": "string"
        },
        {
          "internalType": "address",
          "name": "owner",
          "type": "address"
        },
        {
          "internalType": "enum Journal.Mood",
          "name": "mood",
          "type": "uint8"
        },
        {
          "internalType": "uint256",
          "name": "entry_id",
          "type": "uint256"
        }
      ],
      "stateMutability": "view",
      "type": "function",
      "constant": true
    },
    {
      "inputs": [],
      "name": "entryCount",
      "outputs": [
        {
          "internalType": "uint256",
          "name": "",
          "type": "uint256"
        }
      ],
      "stateMutability": "view",
      "type": "function",
      "constant": true
    },
    {
      "inputs": [
        {
          "internalType": "string",
          "name": "_note",
          "type": "string"
        },
        {
          "internalType": "string",
          "name": "_title",
          "type": "string"
        },
        {
          "internalType": "enum Journal.Mood",
          "name": "_mood",
          "type": "uint8"
        }
      ],
      "name": "createJournalEntry",
      "outputs": [],
      "stateMutability": "nonpayable",
      "type": "function"
    },
    {
      "inputs": [],
      "name": "getTitle",
      "outputs": [
        {
          "internalType": "string",
          "name": "",
          "type": "string"
        }
      ],
      "stateMutability": "view",
      "type": "function",
      "constant": true
    },
    {
      "inputs": [],
      "name": "getNote",
      "outputs": [
        {
          "internalType": "string",
          "name": "",
          "type": "string"
        }
      ],
      "stateMutability": "view",
      "type": "function",
      "constant": true
    },
    {
      "inputs": [],
      "name": "getMood",
      "outputs": [
        {
          "internalType": "enum Journal.Mood",
          "name": "",
          "type": "uint8"
        }
      ],
      "stateMutability": "view",
      "type": "function",
      "constant": true
    }
  ],
  "bytecode": "0x6080604052600060045534801561001557600080fd5b50610dbc806100256000396000f3fe608060405234801561001057600080fd5b50600436106100625760003560e01c80630cbb0f83146100675780633622b86e146100855780639d0c1397146100a1578063b30906d4146100bf578063df3ac476146100f3578063ff3c1a8f14610111575b600080fd5b61006f61012f565b60405161007c9190610626565b60405180910390f35b61009f600480360381019061009a91906107c0565b610135565b005b6100a96102b5565b6040516100b691906108c2565b60405180910390f35b6100d960048036038101906100d49190610909565b6102ce565b6040516100ea9594939291906109ff565b60405180910390f35b6100fb610441565b6040516101089190610a60565b60405180910390f35b6101196104d6565b6040516101269190610a60565b60405180910390f35b60045481565b60008351118015610147575060008251115b61015057600080fd5b6040518060a001604052808381526020018481526020013373ffffffffffffffffffffffffffffffffffffffff1681526020018260038111156101965761019561084b565b5b81526020016004548152506000808201518160000190805190602001906101be92919061056a565b5060208201518160010190805190602001906101db92919061056a565b5060408201518160020160006101000a81548173ffffffffffffffffffffffffffffffffffffffff021916908373ffffffffffffffffffffffffffffffffffffffff16021790555060608201518160020160146101000a81548160ff0219169083600381111561024e5761024d61084b565b5b0217905550608082015181600301559050507f9a6213be728967620e3ab2e1afa4b4f83ffe5f057314e8eb8a6762ce7a19e50360006040516102909190610cec565b60405180910390a1600460008154809291906102ab90610d3d565b9190505550505050565b60008060020160149054906101000a900460ff16905090565b60056020528060005260406000206000915090508060000180546102f190610ab1565b80601f016020809104026020016040519081016040528092919081815260200182805461031d90610ab1565b801561036a5780601f1061033f5761010080835404028352916020019161036a565b820191906000526020600020905b81548152906001019060200180831161034d57829003601f168201915b50505050509080600101805461037f90610ab1565b80601f01602080910402602001604051908101604052809291908181526020018280546103ab90610ab1565b80156103f85780601f106103cd576101008083540402835291602001916103f8565b820191906000526020600020905b8154815290600101906020018083116103db57829003601f168201915b5050505050908060020160009054906101000a900473ffffffffffffffffffffffffffffffffffffffff16908060020160149054906101000a900460ff16908060030154905085565b60606000600101805461045390610ab1565b80601f016020809104026020016040519081016040528092919081815260200182805461047f90610ab1565b80156104cc5780601f106104a1576101008083540402835291602001916104cc565b820191906000526020600020905b8154815290600101906020018083116104af57829003601f168201915b5050505050905090565b60606000800180546104e790610ab1565b80601f016020809104026020016040519081016040528092919081815260200182805461051390610ab1565b80156105605780601f1061053557610100808354040283529160200191610560565b820191906000526020600020905b81548152906001019060200180831161054357829003601f168201915b5050505050905090565b82805461057690610ab1565b90600052602060002090601f01602090048101928261059857600085556105df565b82601f106105b157805160ff19168380011785556105df565b828001600101855582156105df579182015b828111156105de5782518255916020019190600101906105c3565b5b5090506105ec91906105f0565b5090565b5b808211156106095760008160009055506001016105f1565b5090565b6000819050919050565b6106208161060d565b82525050565b600060208201905061063b6000830184610617565b92915050565b6000604051905090565b600080fd5b600080fd5b600080fd5b600080fd5b6000601f19601f8301169050919050565b7f4e487b7100000000000000000000000000000000000000000000000000000000600052604160045260246000fd5b6106a88261065f565b810181811067ffffffffffffffff821117156106c7576106c6610670565b5b80604052505050565b60006106da610641565b90506106e6828261069f565b919050565b600067ffffffffffffffff82111561070657610705610670565b5b61070f8261065f565b9050602081019050919050565b82818337600083830152505050565b600061073e610739846106eb565b6106d0565b90508281526020810184848401111561075a5761075961065a565b5b61076584828561071c565b509392505050565b600082601f83011261078257610781610655565b5b813561079284826020860161072b565b91505092915050565b600481106107a857600080fd5b50565b6000813590506107ba8161079b565b92915050565b6000806000606084860312156107d9576107d861064b565b5b600084013567ffffffffffffffff8111156107f7576107f6610650565b5b6108038682870161076d565b935050602084013567ffffffffffffffff81111561082457610823610650565b5b6108308682870161076d565b9250506040610841868287016107ab565b9150509250925092565b7f4e487b7100000000000000000000000000000000000000000000000000000000600052602160045260246000fd5b6004811061088b5761088a61084b565b5b50565b600081905061089c8261087a565b919050565b60006108ac8261088e565b9050919050565b6108bc816108a1565b82525050565b60006020820190506108d760008301846108b3565b92915050565b6108e68161060d565b81146108f157600080fd5b50565b600081359050610903816108dd565b92915050565b60006020828403121561091f5761091e61064b565b5b600061092d848285016108f4565b91505092915050565b600081519050919050565b600082825260208201905092915050565b60005b83811015610970578082015181840152602081019050610955565b8381111561097f576000848401525b50505050565b600061099082610936565b61099a8185610941565b93506109aa818560208601610952565b6109b38161065f565b840191505092915050565b600073ffffffffffffffffffffffffffffffffffffffff82169050919050565b60006109e9826109be565b9050919050565b6109f9816109de565b82525050565b600060a0820190508181036000830152610a198188610985565b90508181036020830152610a2d8187610985565b9050610a3c60408301866109f0565b610a4960608301856108b3565b610a566080830184610617565b9695505050505050565b60006020820190508181036000830152610a7a8184610985565b905092915050565b7f4e487b7100000000000000000000000000000000000000000000000000000000600052602260045260246000fd5b60006002820490506001821680610ac957607f821691505b60208210811415610add57610adc610a82565b5b50919050565b600082825260208201905092915050565b60008190508160005260206000209050919050565b60008154610b1681610ab1565b610b208186610ae3565b94506001821660008114610b3b5760018114610b4d57610b80565b60ff1983168652602086019350610b80565b610b5685610af4565b60005b83811015610b7857815481890152600182019150602081019050610b59565b808801955050505b50505092915050565b60008160001c9050919050565b600073ffffffffffffffffffffffffffffffffffffffff82169050919050565b6000610bc9610bc483610b89565b610b96565b9050919050565b610bd9816109de565b82525050565b60008160a01c9050919050565b600060ff82169050919050565b6000610c0c610c0783610bdf565b610bec565b9050919050565b610c1c816108a1565b82525050565b6000819050919050565b6000610c3f610c3a83610b89565b610c22565b9050919050565b610c4f8161060d565b82525050565b600060a0830160008084018583036000870152610c728382610b09565b925050600184018583036020870152610c8b8382610b09565b92505060028401549050610c9e81610bb6565b610cab6040870182610bd0565b50610cb581610bf9565b610cc26060870182610c13565b5060038401549050610cd381610c2c565b610ce06080870182610c46565b50819250505092915050565b60006020820190508181036000830152610d068184610c55565b905092915050565b7f4e487b7100000000000000000000000000000000000000000000000000000000600052601160045260246000fd5b6000610d488261060d565b91507fffffffffffffffffffffffffffffffffffffffffffffffffffffffffffffffff821415610d7b57610d7a610d0e565b5b60018201905091905056fea264697066735822122010cd6c11c13950114d297bb8ae2cc4c3dbf1dab225da9b2b578fe28cdeda0b7064736f6c634300080b0033",
  "immutableReferences": {},
  "source": "// SPDX-License-Identifier: MIT\npragma solidity 0.8.11;\n\n\ncontract Journal {\n\n    enum Mood { Anxious, Happy, Sad, Melancholy}\n\n    struct Entry {\n        string title;\n        string note; // write how you are feeling, etc.\n        address owner;\n        Mood mood;\n        uint entry_id;\n    }\n\n    Entry entry;\n\n    uint public entryCount = 0;\n    mapping(uint => Entry) public entries;\n\n    event Submitted(Entry);\n\n    function createJournalEntry(string memory _note, string memory _title, Mood _mood) public {\n        // Require valid entry items\n        require(bytes(_note).length > 0 && bytes(_title).length > 0);\n    \n        // Create a journal entry\n        entry = Entry(_title, _note, msg.sender, _mood, entryCount);\n        // Trigger event\n        emit Submitted(entry);\n        // Increase entry count\n        entryCount++;\n    }\n\n    function getTitle() public view returns (string memory) {\n        return entry.title;\n    }\n\n    function getNote() public view returns (string memory) {\n        return entry.note;\n    }\n\n    function getMood() public view returns (Mood) {\n        return entry.mood;\n    }\n\n}",
  "sourcePath": "/Users/axeliota/Development/journal-dapp/contracts/Journal.sol",
  "compiler": {
    "name": "solc",
    "version": "0.8.11+commit.d7f03943.Emscripten.clang"
  },
  "schemaVersion": "3.4.4",
  "updatedAt": "2022-02-10T05:48:09.359Z",
  "networkType": "ethereum",
  "devdoc": {
    "kind": "dev",
    "methods": {},
    "version": 1
  },
  "userdoc": {
    "kind": "user",
    "methods": {},
    "version": 1
  }
}